{
  "contractName": "SimpleWallet",
  "abi": [
    {
      "constant": true,
      "inputs": [
        {
          "name": "_address",
          "type": "address"
        }
      ],
      "name": "isAllowedToSend",
      "outputs": [
        {
          "name": "",
          "type": "bool"
        }
      ],
      "payable": false,
      "stateMutability": "view",
      "type": "function"
    },
    {
      "constant": true,
      "inputs": [
        {
          "name": "_address",
          "type": "address"
        }
      ],
      "name": "getAmountOfWithdrawls",
      "outputs": [
        {
          "name": "",
          "type": "uint256"
        }
      ],
      "payable": false,
      "stateMutability": "view",
      "type": "function"
    },
    {
      "constant": true,
      "inputs": [
        {
          "name": "_address",
          "type": "address"
        },
        {
          "name": "index",
          "type": "uint256"
        }
      ],
      "name": "getWithdrawlForAddress",
      "outputs": [
        {
          "name": "",
          "type": "address"
        },
        {
          "name": "",
          "type": "uint256"
        }
      ],
      "payable": false,
      "stateMutability": "view",
      "type": "function"
    },
    {
      "constant": false,
      "inputs": [
        {
          "name": "amount",
          "type": "uint256"
        },
        {
          "name": "receiver",
          "type": "address"
        }
      ],
      "name": "sendFunds",
      "outputs": [
        {
          "name": "",
          "type": "uint256"
        }
      ],
      "payable": false,
      "stateMutability": "nonpayable",
      "type": "function"
    },
    {
      "constant": false,
      "inputs": [],
      "name": "killWallet",
      "outputs": [],
      "payable": false,
      "stateMutability": "nonpayable",
      "type": "function"
    },
    {
      "constant": false,
      "inputs": [
        {
          "name": "_address",
          "type": "address"
        }
      ],
      "name": "allowAddressToSendMoney",
      "outputs": [],
      "payable": false,
      "stateMutability": "nonpayable",
      "type": "function"
    },
    {
      "constant": false,
      "inputs": [
        {
          "name": "_address",
          "type": "address"
        }
      ],
      "name": "disallowAddressToSendMoney",
      "outputs": [],
      "payable": false,
      "stateMutability": "nonpayable",
      "type": "function"
    },
    {
      "inputs": [],
      "payable": false,
      "stateMutability": "nonpayable",
      "type": "constructor"
    },
    {
      "payable": true,
      "stateMutability": "payable",
      "type": "fallback"
    },
    {
      "anonymous": false,
      "inputs": [
        {
          "indexed": false,
          "name": "_sender",
          "type": "address"
        },
        {
          "indexed": false,
          "name": "amount",
          "type": "uint256"
        }
      ],
      "name": "Deposit",
      "type": "event"
    },
    {
      "anonymous": false,
      "inputs": [
        {
          "indexed": false,
          "name": "_sender",
          "type": "address"
        },
        {
          "indexed": false,
          "name": "amount",
          "type": "uint256"
        },
        {
          "indexed": false,
          "name": "_beneficiary",
          "type": "address"
        }
      ],
      "name": "Withdrawl",
      "type": "event"
    }
  ],
  "bytecode": "0x6060604052341561000f57600080fd5b336000806101000a81548173ffffffffffffffffffffffffffffffffffffffff021916908373ffffffffffffffffffffffffffffffffffffffff160217905550610a048061005e6000396000f300606060405260043610610083576000357c0100000000000000000000000000000000000000000000000000000000900463ffffffff1680630bc605ad146101085780635ee3610c146101595780637bac318b146101a6578063b26867741461022f578063b67ba1b514610285578063c40046481461029a578063e481553e146102d3575b61008c3361030c565b15610101577fe1fffcc4923d04b559f4d29a8bfc6cda04eb5b0d3c460751c2402c5c5cc9109c3334604051808373ffffffffffffffffffffffffffffffffffffffff1673ffffffffffffffffffffffffffffffffffffffff1681526020018281526020019250505060405180910390a1610106565b600080fd5b005b341561011357600080fd5b61013f600480803573ffffffffffffffffffffffffffffffffffffffff1690602001909190505061030c565b604051808215151515815260200191505060405180910390f35b341561016457600080fd5b610190600480803573ffffffffffffffffffffffffffffffffffffffff169060200190919050506103bc565b6040518082815260200191505060405180910390f35b34156101b157600080fd5b6101e6600480803573ffffffffffffffffffffffffffffffffffffffff16906020019091908035906020019091905050610408565b604051808373ffffffffffffffffffffffffffffffffffffffff1673ffffffffffffffffffffffffffffffffffffffff1681526020018281526020019250505060405180910390f35b341561023a57600080fd5b61026f600480803590602001909190803573ffffffffffffffffffffffffffffffffffffffff169060200190919050506104e4565b6040518082815260200191505060405180910390f35b341561029057600080fd5b6102986107e0565b005b34156102a557600080fd5b6102d1600480803573ffffffffffffffffffffffffffffffffffffffff16906020019091905050610871565b005b34156102de57600080fd5b61030a600480803573ffffffffffffffffffffffffffffffffffffffff16906020019091905050610924565b005b6000600160008373ffffffffffffffffffffffffffffffffffffffff1673ffffffffffffffffffffffffffffffffffffffff16815260200190815260200160002060000160009054906101000a900460ff16806103b557506000809054906101000a900473ffffffffffffffffffffffffffffffffffffffff1673ffffffffffffffffffffffffffffffffffffffff168273ffffffffffffffffffffffffffffffffffffffff16145b9050919050565b6000600160008373ffffffffffffffffffffffffffffffffffffffff1673ffffffffffffffffffffffffffffffffffffffff168152602001908152602001600020600101549050919050565b600080600160008573ffffffffffffffffffffffffffffffffffffffff1673ffffffffffffffffffffffffffffffffffffffff168152602001908152602001600020600201600084815260200190815260200160002060000160009054906101000a900473ffffffffffffffffffffffffffffffffffffffff16600160008673ffffffffffffffffffffffffffffffffffffffff1673ffffffffffffffffffffffffffffffffffffffff168152602001908152602001600020600201600085815260200190815260200160002060010154915091509250929050565b60006104ef3361030c565b156107d957823073ffffffffffffffffffffffffffffffffffffffff16311015156107d8578173ffffffffffffffffffffffffffffffffffffffff166108fc849081150290604051600060405180830381858888f19350505050151561055457600080fd5b7f2ce435329ed2714bb4f4b7d0fe33307418dcf239c8c61d63a6b2fe052f7491c2338484604051808473ffffffffffffffffffffffffffffffffffffffff1673ffffffffffffffffffffffffffffffffffffffff1681526020018381526020018273ffffffffffffffffffffffffffffffffffffffff1673ffffffffffffffffffffffffffffffffffffffff168152602001935050505060405180910390a1600160003373ffffffffffffffffffffffffffffffffffffffff1673ffffffffffffffffffffffffffffffffffffffff1681526020019081526020016000206001016000815480929190600101919050555081600160003373ffffffffffffffffffffffffffffffffffffffff1673ffffffffffffffffffffffffffffffffffffffff1681526020019081526020016000206002016000600160003373ffffffffffffffffffffffffffffffffffffffff1673ffffffffffffffffffffffffffffffffffffffff16815260200190815260200160002060010154815260200190815260200160002060000160006101000a81548173ffffffffffffffffffffffffffffffffffffffff021916908373ffffffffffffffffffffffffffffffffffffffff16021790555082600160003373ffffffffffffffffffffffffffffffffffffffff1673ffffffffffffffffffffffffffffffffffffffff1681526020019081526020016000206002016000600160003373ffffffffffffffffffffffffffffffffffffffff1673ffffffffffffffffffffffffffffffffffffffff168152602001908152602001600020600101548152602001908152602001600020600101819055503073ffffffffffffffffffffffffffffffffffffffff163190506107da565b5b5b92915050565b6000809054906101000a900473ffffffffffffffffffffffffffffffffffffffff1673ffffffffffffffffffffffffffffffffffffffff163373ffffffffffffffffffffffffffffffffffffffff16141561086f576000809054906101000a900473ffffffffffffffffffffffffffffffffffffffff1673ffffffffffffffffffffffffffffffffffffffff16ff5b565b6000809054906101000a900473ffffffffffffffffffffffffffffffffffffffff1673ffffffffffffffffffffffffffffffffffffffff163373ffffffffffffffffffffffffffffffffffffffff1614156109215760018060008373ffffffffffffffffffffffffffffffffffffffff1673ffffffffffffffffffffffffffffffffffffffff16815260200190815260200160002060000160006101000a81548160ff0219169083151502179055505b50565b6000809054906101000a900473ffffffffffffffffffffffffffffffffffffffff1673ffffffffffffffffffffffffffffffffffffffff163373ffffffffffffffffffffffffffffffffffffffff1614156109d5576000600160008373ffffffffffffffffffffffffffffffffffffffff1673ffffffffffffffffffffffffffffffffffffffff16815260200190815260200160002060000160006101000a81548160ff0219169083151502179055505b505600a165627a7a723058200956e4e3771030e9d5c17869edaa72fab7b46be3ae8217f9bff76bfdf35194760029",
  "source": "pragma solidity ^0.4.0;\ncontract SimpleWallet {\n\n    address owner;\n\n    struct WithdrawlStruct {\n        address to;\n        uint amount;\n    }\n\n    struct Senders {\n        bool allowed;\n        uint amount_sends;\n        mapping(uint => WithdrawlStruct) withdrawls;\n    }\n\n    mapping(address => Senders) isAllowedToSendFundsMapping;\n\n\n    event Deposit(address _sender, uint amount);\n    event Withdrawl(address _sender, uint amount, address _beneficiary);\n\n    function SimpleWallet() {\n        owner = msg.sender;\n    }\n\n    function() payable{\n        if(isAllowedToSend(msg.sender)) {\n            Deposit(msg.sender, msg.value);\n         } else {\n            throw;\n         }\n    }\n\n    function sendFunds(uint amount, address receiver) returns (uint) {\n        if(isAllowedToSend(msg.sender)) {\n          if(this.balance >= amount) {\n            if(!receiver.send(amount)) {\n              throw;\n            }\n            Withdrawl(msg.sender, amount, receiver);\n            isAllowedToSendFundsMapping[msg.sender].amount_sends++;\n            isAllowedToSendFundsMapping[msg.sender].withdrawls[isAllowedToSendFundsMapping[msg.sender].amount_sends].to = receiver;\n            isAllowedToSendFundsMapping[msg.sender].withdrawls[isAllowedToSendFundsMapping[msg.sender].amount_sends].amount = amount;\n            return this.balance;\n          }\n        }\n      }\n\n      function getAmountOfWithdrawls(address _address) constant returns (uint) {\n        return isAllowedToSendFundsMapping[_address].amount_sends;\n      }\n\n      function getWithdrawlForAddress(address _address, uint index) constant returns (address, uint) {\n        return (isAllowedToSendFundsMapping[_address].withdrawls[index].to, isAllowedToSendFundsMapping[_address].withdrawls[index].amount);\n      }\n\n      function allowAddressToSendMoney(address _address) {\n        if(msg.sender == owner) {\n            isAllowedToSendFundsMapping[_address].allowed = true;\n         }\n      }\n\n      function disallowAddressToSendMoney(address _address) {\n        if(msg.sender == owner) {\n            isAllowedToSendFundsMapping[_address].allowed = false;\n         }\n      }\n\n      function isAllowedToSend(address _address) constant returns (bool) {\n        return isAllowedToSendFundsMapping[_address].allowed || _address == owner;\n      }\n\n      function killWallet() {\n        if(msg.sender == owner) {\n          suicide(owner);\n        }\n      }\n\n\n}",
  "sourcePath": "/home/torpedko/verySimpleWallet/contracts/SimpleWallet.sol",
  "compiler": {
    "name": "solc",
    "version": "0.4.18+commit.9cf6e910.Emscripten.clang"
  },
  "schemaVersion": "1.0.1",
  "updatedAt": "2017-12-17T21:00:52.044Z"
}